:1000000000308A008B2C0000A601A701A801A901DD
:10001000AA01AB018316861083128610831606117F
:100020008312061183168611831286118316861297
:100030008312861283160612831206128316061383
:100040008312061300342F08A6002F08323CA900A3
:10005000B00A3008963C031D3F28B001AE080319D2
:10006000332801303428FF302F07AF002F08323CEF
:100070000319AE01AF08031D3F280130AE008A11FD
:10008000E92C3B08A900A600BC0A3C08963C031DCD
:100090005B28BC01BA0803194F2801305028FF30F3
:1000A0003B07BB003B08323C0319BA01BB08031DE8
:1000B0005B280130BA008A11E92C3E08AB00A80089
:1000C000AA00A700A900A600BF0A3F08963C031D8E
:1000D0007B28BF01BD0803196F2801307028FF304D
:1000E0003E07BE003E08323C0319BD01BE08031D99
:1000F0007B280130BD008A11E92C3208AA00A70034
:10010000B30A3308963C031D9728B301B1080319BD
:100110008B2801308C28FF303207B2003208323C85
:100120000319B101B208031D97280130B1008A11EB
:10013000E92C3508AB00A800B60A3608963C031D2A
:10014000B328B601B4080319A7280130A828FF3046
:100150003507B5003508323C0319B401B508031D55
:10016000B3280130B4008A11E92C3808A800AB008C
:10017000AA00A700B90A3908963C031DD128B90185
:10018000B7080319C5280130C628FF303807B80062
:100190003808323C0319B701B808031DD1280130D3
:1001A000B7008A11E92CF801F901F701FA014F08AB
:1001B000031DDD284E080319F7281030D000031066
:1001C000CC0DCD0DF70DFA0D4F087A02031DEA286C
:1001D0004E087702031CF3284E08F702031CFA03AB
:1001E0004F08FA020314F80DF90DD00BDF28003484
:1001F0002508CC002408CB002308CA002208C90027
:100200004130D000C630CF004E30CE006D30CD0032
:100210002030D500D101D201D301D4014C08FA001D
:100220004B08F9004A08F8004908F7000310771C4A
:1002300027294D08D1074E0803184E0FD2074F0843
:1002400003184F0FD30750080318500FD407D40CCE
:10025000D30CD20CD10CFA0CF90CF80CF70CD50B12
:10026000162939307707A2007808A3003030031828
:100270003130A3077908A400003003180130A40727
:100280007A08A500003003180130A5072408F700FC
:100290002508F800F901FA012508CB002408CA0056
:1002A0002508CD002408CC007F30CF00FF30CE00E1
:1002B000D3207708F8007A08F9000034C00A400F0C
:1002C000BC29C001F8207908CA007808C90079085B
:1002D000CD007808CC00CF016430CE00D320770861
:1002E000A600F8207908CA007808C9007908CD006E
:1002F0007808CC00CF016430CE00D3207708A70067
:10030000F8207908CA007808C9007908CD00780873
:10031000CC00CF016430CE00D3207708A800F820AD
:100320007908CA007808C9007908CD007808CC009F
:10033000CF016430CE00D3207708A900F8207908D7
:10034000CA007808C9007908CD007808CC00CF0130
:100350006430CE00D3207708AA00F8207908CA00BC
:100360007808C9007908CD007808CC00CF01643046
:10037000CE00D3207708AB008A11E92CA608031D14
:10038000C6298316861083128610CA298316861002
:1003900083128614A708031DD2298316061183121F
:1003A0000611D6298316061183120615A808031D07
:1003B000DE298316861183128611E229831686119F
:1003C00083128615A908031DEA2983168612831253
:1003D0008612EE298316861283128616AA08031D3A
:1003E000F6298316061283120612FA2983160612BC
:1003F00083120616AB08031D022A83160613831206
:100400000613062A831606138312061700344C308F
:1004100084008313000803191B2A0130F800F70138
:10042000F70B102AF80B0F2A4A30F700F70B162AA1
:10043000192A800B0D2A00344108A900A600BE210C
:100440004408C900C90AC90303192A2AFF30CC008D
:100450000722232A4308CC0007228316051583129E
:10046000051D1B2C4208A900A600BE214808C90092
:10047000C90AC9030319402AFF30CC000722392AD0
:100480004708CC000722831605158312051D1B2C77
:100490004108A900A600BE214608C900C90AC9032F
:1004A0000319562AFF30CC0007224F2A4508CC00FA
:1004B0000722831605158312051D1B2C4208A9006F
:1004C000A600BE214808C900C90AC90303196C2A3D
:1004D000FF30CC000722652A4708CC00072283168C
:1004E00005158312051D1B2C4108A900A600BE217D
:1004F0004408C900C90AC9030319822AFF30CC0085
:1005000007227B2A4308CC00072283160515831295
:10051000051D1B2C4208A900A600BE214808C900E1
:10052000C90AC9030319982AFF30CC000722912A6F
:100530004708CC000722831605158312051D1B2CC6
:100540004108A900A600BE214408C900C90AC90380
:100550000319AE2AFF30CC000722A72A4308CC009B
:100560000722831605158312051D1B2C4208A900BE
:10057000A600BE2147084707C9004808CA00480826
:100580000318480FCA074A08CB00CB0ACB0303194C
:10059000CD2AFF30CC000722C62A4908CC0007220A
:1005A000831605158312051D1B2C4108A900A60002
:1005B000BE214408C900C90AC9030319E32AFF3050
:1005C000CC000722DC2A4308CC000722831605153D
:1005D0008312051D1B2C4208A900A600BE21480855
:1005E000C900C90AC9030319F92AFF30CC00072240
:1005F000F22A4708CC000722831605158312051D31
:100600001B2C4108A900A600BE214408C900C90A44
:10061000C90303190F2BFF30CC000722082B430816
:10062000CC000722831605158312051D1B2C4208DA
:10063000A900A600BE214808C900C90AC9030319B8
:10064000252BFF30CC0007221E2B4708CC000722A9
:10065000831605158312051D1B2C4108A900A60051
:10066000BE214608C900C90AC90303193B2BFF3044
:10067000CC000722342B4508CC0007228316051531
:100680008312051D1B2C4208A900A600BE214808A4
:10069000C900C90AC9030319512BFF30CC00072236
:1006A0004A2B4708CC000722831605158312051D27
:1006B0001B2C4108A900A600BE214408C900C90A94
:1006C000C9030319672BFF30CC000722602B4308B6
:1006D000CC000722831605158312051D1B2C42082A
:1006E000A900A600BE2147084707C9004808CA005C
:1006F00048080318480FCA074A08CB00CB0ACB03A7
:100700000319862BFF30CC0007227F2B4908CC0031
:100710000722831605158312051D1B2C4108A9000D
:10072000A600BE214408C900C90AC90303199C2BAD
:10073000FF30CC000722952B4308CC0007228316FC
:1007400005158312051D1B2C4208A900A600BE2119
:100750004808C900C90AC9030319B22BFF30CC00ED
:100760000722AB2B4708CC000722831605158312FE
:10077000051D1B2C4108A900A600BE214408C90084
:10078000C90AC9030319C82BFF30CC000722C12BAB
:100790004308CC000722831605158312051D1B2C68
:1007A0004208A900A600BE214808C900C90AC90319
:1007B0000319DE2BFF30CC000722D72B4708CC00D3
:1007C0000722831605158312051D1B2C4108A9005D
:1007D000A600BE214408C900C90AC9030319F42BA5
:1007E000FF30CC000722ED2B4308CC0007228316F4
:1007F00005158312051D1B2C4208A900A600BE2169
:1008000047084707C9004808CA0048080318480FA6
:10081000CA074A08CB00CB0ACB030319132CFF30BD
:10082000CC0007220C2C4908CC00072283160515A2
:100830008312051D1B2C8A11E92C01302D07CA00DB
:100840004A08CB00FF30CC004C08F8014B020318DB
:100850002C2C4B08F700382CF7010830CD00CB0DBD
:10086000F70D4C0877020318F700F80DCD0B2F2C6D
:1008700001307707AD002D0826020318442C83169B
:10088000861083128610482C8316861083128614D5
:100890002D0827020318512C831606118312061106
:1008A000552C83160611831206152D0828020318ED
:1008B0005E2C8316861183128611622C8316861194
:1008C000831286152D08290203186B2C83168612B5
:1008D000831286126F2C83168612831286162D08B9
:1008E0002A020318782C83160612831206127C2C17
:1008F00083160612831206162D082B020318852C68
:100900008316061383120613892C8316061383128B
:1009100006178A11FB2C840183131F30830583166D
:100920008E15073083129F00A001A101A601A70127
:10093000A801A901AA01AB01AC010130AD00AE00D4
:10094000AF00B001B100B200B301B400B500B60110
:10095000B700B800B901BA00BB00BC01BD00BE00C1
:10096000BF01C001C100C2019630C300C401F43010
:10097000C5000130C600FA30C700C801831601085F
:10098000C73908388100831290010030F8009200C6
:10099000003083169200073083129F0083160508EB
:1009A0000330F700F70BD22C83121F080C138316A9
:1009B0009F01831204202C08F83E0318E92C083EFE
:1009C000FD2C232841285D287D289928B5285E29FB
:1009D0001C2A8316051583120519FA2C04200430ED
:1009E000C900FA30CC000722C90BF12C01302C07CA
:1009F0000739AC001D2CDB2C63000A148A100A1581
:100A00008207E12CE22CE32CE42CE52CE62CE72CED
:020A1000E82CD0
:02400E00383F39
:00000001FF
;PIC16F648A
